:060000000A128A110E280D
:10000800FE00030EF4000A08F5007F08F6000A1245
:100018008A15C4280A128A11112883179B30FD00FB
:100028001230FE003930FF00903084000A168A1121
:1000380062220A128A118313E630FD001230FE0094
:100048002630FF00DD3084000A168A1162220A1267
:100058008A1183160313D301D401D501D601D70120
:10006800D801D901DA01DB01DC01F701F801F90156
:1000780083010A128A15D72D831203133108803998
:10008800BB003108B6003607C100B01F4C284D2808
:100098004E28411441080319522853286228410A5E
:1000A800031D5728582860280030B1000030B000E0
:1000B8000030AF000030AE00B0176A280030B10041
:1000C8000030B0000030AF000030AE003508803995
:1000D800FF007F08BB063508B6003607C000B41F0E
:1000E8007628772878284014400803197C287D282A
:1000F8008C28400A031D812882288A280030B500F0
:100108000030B4000030B3000030B200B4179428B7
:100118000030B5000030B4000030B3000030B20049
:1001280040080319982899289E284108031D9D28EE
:100138009E28A7280030B1000030B0000030AF0082
:100148000030AE00842B2E08A00034080A168A114D
:1001580079230A128A11831203132108C700200881
:10016800C6004608B600B701B801B9013908BF0092
:100178003808BE003708BD003608BC004708B6007E
:10018800B701B801B9013908C5003808C4003708F3
:10019800C3003608C2002F08A00033080A168A11C7
:1001A80079230A128A11831203132108C700200831
:1001B800C6004608B600B701B801B9013608BC0741
:1001C800370803110318013E0319EB28BD07380847
:1001D80003110318013E0319F228BE073908031159
:1001E8000318013E0319F928BF074708B600B701ED
:1001F800B801B9013608C207370803110318013ED0
:1002080003190729C307380803110318013E031906
:100218000E29C407390803110318013E03191529CB
:10022800C5073008A00032080A168A1179230A1275
:100238008A11831203132108C7002008C600460844
:10024800B600B701B801B9013608BC073708031171
:100258000318013E03193129BD0738080311031893
:10026800013E03193829BE07390803110318013E56
:1002780003193F29BF074708B600B701B801B901FC
:100288003608C207370803110318013E03194D2920
:10029800C307380803110318013E03195429C4077A
:1002A800390803110318013E03195B29C5070830F3
:1002B800B6000310BC0DBD0DBE0DBF0DB60B5D29FC
:1002C8002F08A00032080A168A1179230A128A1107
:1002D800831203132108C7002008C6004608B60089
:1002E8004708B700B801B9013608BC073708031139
:1002F8000318013E03198129BD07380803110318A3
:10030800013E03198829BE07390803110318013E65
:1003180003198F29BF072E08A00033080A168A116F
:1003280079230A128A11831203132108C7002008AF
:10033800C6004608B6004708B700B801B901360834
:10034800BC07370803110318013E0319AC29BD0780
:10035800380803110318013E0319B329BE073908E9
:1003680003110318013E0319BA29BF070830B60064
:100378000310BC0DBD0DBE0DBF0DB60BBC292E085C
:10038800A00032080A168A1179230A128A118312E8
:1003980003132108C7002008C6004608B60047080E
:1003A800B700B801B9013608BC07370803110318AC
:1003B800013E0319E029BD07380803110318013E5F
:1003C8000319E729BE07390803110318013E031969
:1003D800EE29BF072F08A00034080A168A117923CE
:1003E8000A128A11831203132108C7002008C600C5
:1003F8004608B6004708B700B801B9013608C20771
:10040800370803110318013E03190B2AC3073808DC
:1004180003110318013E0319122AC40739080311EE
:100428000318013E0319192AC5073008A00033082C
:100438000A168A1179230A128A11831203132108D2
:10044800C7002008C6004608B6004708B700B8012C
:10045800B9013608C207370803110318013E03190A
:10046800362AC307380803110318013E03193D2A29
:10047800C407390803110318013E0319442AC507A4
:100488003008A00034080A168A1179230A128A1142
:10049800831203132108C7002008C6004608B600C7
:1004A8004708B700B801B90108300310B60DB70DF9
:1004B800B80DB90DFF3E031D592A3608C207370883
:1004C80003110318013E03196A2AC30738080311E8
:1004D8000318013E0319712AC407390803110318C8
:1004E800013E0319782AC5073C08B6003D08B70045
:1004F8003E08B8003F08B90018300310B90CB80C12
:10050800B70CB60CFF3E031D812A3608C207370810
:1005180003110318013E0319922AC307380803116F
:100528000318013E0319992AC4073908031103184F
:10053800013E0319A02AC5070830B6000310BC0DF8
:10054800BD0DBE0DBF0DB60BA22A41084007B6006F
:10055800B701B70D3608823EC60037080318013EBA
:10056800FF3EC700D42A0130B6000310C20DC30DE8
:10057800C40DC50DB60BB92ABF1FC32AC42AC52A84
:1005880042140130B6000310BC0DBD0DBE0DBF0DE9
:10059800B60BC72AFF30C6070318C70AFF30C707BC
:1005A800C41FD72AD82AB72AC001BF1FDC2ADD2AD0
:1005B800F92AFF303C05B600FF303D05B700FF3093
:1005C8003E05B8007F303F05B900390838043704C4
:1005D80036040319F02AF12AF42AC001C00AF92ABC
:1005E800421CF72AF82AF92AF12A40080319FD2A99
:1005F800FE2A2F2B0130C207003003180130C30731
:10060800003003180130C407003003180130C50753
:10061800451C0F2B102B2F2B4208B6004308B700A0
:100628004408B8004508B9000130BA00390DB90CC2
:10063800B80CB70CB60CBA0B1A2B3908C500380819
:10064800C4003708C3003608C2000130C6070318C3
:10065800C70A0030C7074708803AFF0080307F028A
:10066800031D382BFF304602031C3B2B3C2B472B2A
:100678007F3083120313C5008030C4000030C300EC
:100688000030C200782B831203134708803AFF001A
:1006980080307F02031D522B013046020318552B70
:1006A800562B622B003083120313C5000030C400A0
:1006B8000030C3000030C200BB01782B8312031343
:1006C8004608C100FF30C205FF30C3057F30C405AE
:1006D8000030C505411C712B722B732BC4174108C0
:1006E800B6000310360CC5003B08FF007F08C504A0
:1006F8004508B1004408B0004308AF004208AE0006
:1007080008008312031323088039B0002308A800C7
:100718002807B200A21F912B922B932B3214320878
:100728000319972B982BA82B320A031D9C2B9D2B62
:10073800A52B0030A3000030A2000030A10000303B
:10074800A000A217A301B02B0030A3000030A20024
:100758000030A1000030A00027088039B10031081E
:1007680030060319B82BB92BBA2B30172708A80065
:100778002807B100A61FC12BC22BC32B3114310887
:100788000319C72BC82BD82B310A031DCC2BCD2B13
:10079800D52B0030A7000030A6000030A50000309F
:1007A800A400A617A701E02B0030A7000030A60080
:1007B8000030A5000030A400320831020318E52BF0
:1007C800E62B0C2C301FE92BEA2BEE2B8030FF0098
:1007D8007F08B0063208B3003108B2003308B10010
:1007E8002008B3002408A0003308A4002108B3009F
:1007F8002508A1003308A5002208B3002608A20096
:100808003308A6002308B3002708A3003308A7006D
:10081800B3013108A800A9012908AB003208280251
:10082800AA00031CAB032B08803AFF0080307F022C
:10083800031D202C1A302A02031C232C242C5B2C89
:10084800831203132308220421042004031D2D2CE2
:100858002F2C0130302C0030B3000030A3000030C2
:10086800A2000030A1000030A0003108B200632CC3
:10087800331C3F2C402C472C3308A8000310280CAD
:100888000138B300492C0310B30C201C4C2C4D2C00
:100898004E2CB3170130A800230DA30CA20CA10CF9
:1008A800A00CA80B502C0130FF007F08B207831260
:1008B800031331083202031C622C632C3C2C301BBE
:1008C800662C672CB02C3208031D6B2C6C2C752CF5
:1008D8000030A3000030A2000030A1000030A000CA
:1008E800DC2D2408A007250803110318013E03196D
:1008F8007E2CA107260803110318013E0319852C35
:10090800A207270803110318013E03198C2CA3071B
:10091800231C8F2C902C642D331C932C942C9B2CF3
:100928003308A8000310280C0138B3009D2C0310CD
:10093800B30C201CA02CA12CA22CB3170130A800AA
:10094800230DA30CA20CA10CA00CA80BA42C013005
:10095800FF007F08B207642D2308803AFF002708AC
:10096800803A7F02031DC22C26082202031DC22CD6
:1009780025082102031DC22C240820020318C52CB7
:10098800C62C1E2DFF30A800FF30A900FF30AA009A
:10099800FF30AB002408AC002508AD002608AE00E7
:1009A8002708AF002008AC022108031C210FDD2C0A
:1009B800DE2CAD022208031C220FE32CE42CAE022D
:1009C8002308031C230FE92CEA2CAF022C08A807E4
:1009D8002D0803182D0FF12CF22CA9072E08031847
:1009E8002E0FF72CF82CAA072F0803182F0AAB078D
:1009F8002B08A3002A08A2002908A1002808A000A3
:100A08008030FF007F08B006B309B30A3308031D1E
:100A18000E2D0F2D2C2D0130A007003003180130AA
:100A2800A107003003180130A20700300318013075
:100A3800A3072C2D2408A0022508031C250FA102BA
:100A48002608031C260FA2022708031C270FA3024F
:100A58002308220421042004031D332D342D602D86
:100A68003308031D382D392D602D0030A3000030C8
:100A7800A2000030A1000030A000DC2D0130A80049
:100A88000310A00DA10DA20DA30DA80B442DB31F9B
:100A98004E2D4F2D502D2014331C532D542D572DD2
:100AA8000314B30D592D0310B30D320803195D2D2E
:100AB8005E2D602D0130B202A21F632D642D422DE0
:100AC800B101B31F682D692D772D33087F390319BC
:100AD8006E2D6F2D722DB101B10A772D201C752D49
:100AE800762D772D6F2D310803197B2D7C2DB02D98
:100AF8000130A007003003180130A10700300318A7
:100B08000130A207003003180130A307231C8D2DE4
:100B18008E2DB02D2008A8002108A9002208AA00BF
:100B28002308AB000130AC002B0DAB0CAA0CA90CB0
:100B3800A80CAC0B982D2B08A3002A08A2002908A2
:100B4800A1002808A000320A0319AB2DAC2DB02D46
:100B58000130FF007F08B207320A0319B42DB52D02
:100B6800BA2D3208031DB92DBA2DC82D0030A300A7
:100B78000030A2000030A1000030A0003208031DA0
:100B8800C62DC72DC82DB001321CCB2DCC2DCE2D96
:100B9800A217D22D7F30FF007F08A2053208A800D7
:100BA8000310280CA300B01FDA2DDB2DDC2DA317B2
:100BB8000800831203134F088039D9004F08D0006A
:100BC8005007E000CE1FE92DEA2DEB2D60146008D8
:100BD8000319EF2DF02D002E600A031DF42DF52DBD
:100BE800FD2D0030CF000030CE000030CD000030A9
:100BF800CC00CE17CF01082E0030CF000030CE0039
:100C08000030CD000030CC004B088039FF007F0851
:100C1800D9064B08D0005007E100CA1F142E152E24
:100C2800162E6114610803191A2E1B2E2B2E610A29
:100C3800031D1F2E202E282E0030CB000030CA00A6
:100C48000030C9000030C800CA17CB01332E00306D
:100C5800CB000030CA000030C9000030C8004B0883
:100C68004A0449044804031D3A2E3B2E542E0030F2
:100C7800CF000030CE000030CD000030CC008030F6
:100C8800CE047F30CF045908FF007F08CF044F08F7
:100C9800CB004E08CA004D08C9004C08C800AB2F4D
:100CA8006008031D582E592E622E0030CB000030EC
:100CB800CA000030C9000030C800AB2F6008D0005F
:100CC800D1015108D30061085002D200031CD3039C
:100CD80052087F3EDA0053080318013E003EDB004D
:100CE8004F08D8004E08D7004D08D6004C08D5004C
:100CF8000030CF000030CE000030CD000030CC00F6
:100D08000030DF000030DE000030DD000030DC00A5
:100D1800E101D82E61080319922E932EB32E0130CB
:100D2800D0000310D50DD60DD70DD80DD00B952EAC
:100D38000130D0000310CC0DCD0DCE0DCF0DD00B52
:100D48009E2EDF1FA82EA92EAA2E4C140130D000EB
:100D58000310DC0DDD0DDE0DDF0DD00BAC2E4B08C6
:100D68005802031DC12E4A085702031DC12E490807
:100D78005602031DC12E48085502031CC42EC52E59
:100D8800D42E5F174808D5024908031C490FD6021C
:100D98004A08031C4A0FD7024B08031C4B0FD80202
:100DA8000130FF007F08E1071A306102031CDD2EC5
:100DB800DE2E8E2E58085704560455040319E52EC6
:100DC800E62E052F5C14052F0130D0000310CC0D42
:100DD800CD0DCE0DCF0DD00BEA2EDF1FF42EF52E44
:100DE800F62E4C140130D0000310DC0DDD0DDE0DA5
:100DF800DF0DD00BF82EFF30DA070318DB0AFF30BF
:100E0800DB07CE1F082F092FE82EE101DF1F0D2F6A
:100E18000E2F2A2FFF305C05D000FF305D05D10072
:100E2800FF305E05D2007F305F05D30053085204BF
:100E3800510450040319212F222F252FE101E10A23
:100E48002A2F4C1C282F292F2A2F222F61080319FB
:100E58002E2F2F2F602F0130CC07003003180130C0
:100E6800CD07003003180130CE07003003180130D9
:100E7800CF074F1C402F412F602F4C08D0004D0842
:100E8800D1004E08D2004F08D3000130D400530DD2
:100E9800D30CD20CD10CD00CD40B4B2F5308CF0051
:100EA8005208CE005108CD005008CC000130DA07B6
:100EB8000318DB0A0030DB075B08803AFF0080304C
:100EC8007F02031D692FFF305A02031C6C2F6D2F00
:100ED8007B2FFF3083120313DA000030DB00003071
:100EE800CF000030CE000030CD000030CC0083129F
:100EF80003135B08803AFF0080307F02031D862FB2
:100F080001305A020318892F8A2F972F831203134F
:100F1800DA01DB010030CF000030CE000030CD0018
:100F28000030CC00D901831203135A08E000601C7A
:100F38009E2F9F2FA12FCE17A52F7F30FF007F0850
:100F4800CE056008D0000310500CCF00472E0800D3
:100F580000300A128A1500200A128A11831203131C
:100F68000910413083120313A500ED30A400A40B2F
:100F7800BB2FA50BBB2FC02F30300A168A119E221B
:100F88000A128A110D3083120313A500FB30A40046
:100F9800A40BCC2FA50BCC2F30300A168A119E2219
:100FA8000A128A11273083120313A500F430A40013
:100FB800A40BDC2FA50BDC2F000030300A168A1199
:100FC8009E220A128A1138300A168A119E220A12A3
:100FD8008A110C300A168A119E220A128A110130CF
:100FE8000A168A119E220A128A1106300A168A11D6
:100FF8009E220A128A11080083120313A0002008F7
:101008008800080001300A168A1167260A128A1514
:101018008316031788018901831603138801831235
:1010280003138801831603138901831203138901AB
:1010380007308316031386008312031386010330D7
:101048000A168A1171220A128A1583160313DC0103
:10105800DB01DA01D901D801D701D601D501D401C4
:10106800D301F901F8010A128A11AC270A128A156C
:10107800003083120313B1000130B0008630AF0096
:10108800A030AE000A168A119C240A128A1508009C
:10109800031083120313640D650DEB006B08031D29
:1010A8005628572860280030E5000030E40000305A
:1010B800E3000030E200C3286208E6006308E700A6
:1010C8006408E8006508E9001F300310E90CE80C23
:1010D800E70CE60CFF3E031D69286608EA00E417E2
:1010E800FF30E205FF30E305FF30E4050030E50599
:1010F8009630EB02EB1F812882289C286B08803AE7
:10110800973E0318882889288A2857280130031011
:10111800E50CE40CE30CE20CFF3E031D8B280130C8
:10112800FF007F08EB07031D9A289B288A28B3280D
:1011380020306B02031CA128A228AE2857280130B2
:10114800E6000310E20DE30DE40DE50DE60BA5281E
:101158000130EB026B08031DB228B328A3286A08E4
:101168000319B728B828C328E209E309E409E509FF
:10117800E20A0319E30A0319E40A0319E50A080055
:101188000B1CC728C8283B29831203130618CD282F
:10119800CE28DC280A168A11A2230A128A15031CF3
:1011A800D628D728F2280130FF007F08F907F2284F
:1011B8008618DF28E028F22879080319E428E528AA
:1011C800F2280A168A11A2230A128A15031CED288E
:1011D800EE28F2280130FF007F08F8070630790270
:1011E800031CF728F828F928F9017903031DFD28BD
:1011F800FE28052918307802031C0329042905292B
:10120800F80102307906031D0A290B2912293C30FE
:101218007802031C102911291229F80103307906D4
:10122800031D1729182920290D307802031C1D29B0
:101238001E292029F801F80A03307906031D2529FB
:1012480026292D297808031D2A292B292D29F8015B
:10125800F80A04307906031D322933293A29643003
:101268007802031C382939293A29F8010B10760825
:10127800FF0075088A00740E8300FE0E7E0E0900BA
:1012880083120313A800280803194B294C29602945
:10129800A31F4F29502960292009AA002109AB0062
:1012A8002209AC002309AD00AA0A0319AB0A0319E5
:1012B800AC0A0319AD0A68292308AD002208AC005E
:1012C8002108AB002008AA002308220421042004D6
:1012D800031D6F29702979290030A3000030A2006E
:1012E8000030A1000030A000FD299630A90089290E
:1012F8000130FF007F08A90701300310AD0CAC0CCA
:10130800AB0CAA0CFF3E031D8129FE302D05031DE1
:101318008E298F297C29AB290130FF007F08A90776
:101328000130AA07003003180130AB07003003185A
:101338000130AC07003003180130AD07013003104D
:10134800AD0CAC0CAB0CAA0CFF3E031DA329FF305F
:101358002D05031DB029B1299029BD290130A90205
:101368000130A4000310AA0DAB0DAC0DAD0DA40BFC
:10137800B629AC1BC029C129C72902302902031884
:10138800C629C729B2292918CA29CB29D329FF3048
:10139800AA05FF30AB057F30AC05FF30AD05031063
:1013A800A90C2908A400A501A601A701183003105B
:1013B800A40DA50DA60DA70DFF3E031DDB292408CE
:1013C800AA042508AB042608AC042708AD0428089D
:1013D8000319EF29F029F529A31FF329F429F52981
:1013E800AD172D08A3002C08A2002B08A1002A087D
:1013F800A000080083160313C1006430A300003066
:10140800A40041080A168A110A260A128A158316A8
:101418000313B700B8013708A1003808A2000A165C
:101428008A1152230A128A15831603132108BD0054
:101438002208BE000030BE1BFF30BF00C0000A30CB
:10144800AF000030B0004108B700B801B901BA01D7
:101458003A0883120313A30083160313390883126F
:101468000313A20083160313380883120313A10081
:1014780083160313370883120313A00001300A12DE
:101488008A1544210A128A15831203132308B5000A
:101498002208B4002108B3002008B2003F30B10090
:1014A800FA30B000F830AF003830AE000A128A11B6
:1014B80040200A128A158312031331088316031376
:1014C800AE0083120313300883160313AD00831292
:1014D80003132F0883160313AC00831203132E087B
:1014E80083160313AB00400883120313A30083166B
:1014F80003133F0883120313A200831603133E0845
:1015080083120313A100831603133D0883120313E8
:10151800A00001300A128A1544210A128A15831282
:101528000313230883160313AA0083120313220844
:1015380083160313A90083120313210883160313C8
:10154800A80083120313200883160313A7000A16A2
:101558008A115F250A128A15831603132A08831233
:101568000313E50083160313290883120313E40009
:1015780083160313280883120313E3008316031347
:10158800270883120313E2000A128A154C200A1254
:101598008A1583120313620883160313BB00BC0168
:1015A8003B08B1003C08B2000A168A1197270A12B4
:1015B8008A15831603132F08C100410808008316F3
:1015C8000313D0006430A3000030A40050080A16AA
:1015D8008A110A260A128A1583160313C200C30148
:1015E8004208A1004308A2000A168A1152230A12CF
:1015F8008A15831603132108C6002208C700003085
:10160800C71BFF30C800C90050080A128A15FE21FE
:101618000A128A1583160313C200C3014208CE00BA
:101628004308CF005008C200C301C401C5014508E2
:1016380083120313A30083160313440883120313AE
:10164800A20083160313430883120313A100831611
:101658000313420883120313A00001300A128A15EB
:1016680044210A128A15831203132308B50022089D
:10167800B4002108B3002008B2003F30B100FA30AE
:10168800B000F830AF003830AE000A128A1140209E
:101698000A128A1583120313310883160313AE0046
:1016A80083120313300883160313AD008312031348
:1016B8002F0883160313AC00831203132E08831616
:1016C8000313AB00490883120313A3008316031303
:1016D800480883120313A2008316031347088312D2
:1016E8000313A10083160313460883120313A000F3
:1016F80001300A128A1544210A128A15831203132B
:10170800230883160313AA008312031322088316DF
:101718000313A90083120313210883160313A800D7
:1017280083120313200883160313A7000A168A11CD
:101738005F250A128A15831603132A08CD00290883
:10174800CC002808CB002708CA004D08AE004C087A
:10175800AD004B08AC004A08AB000A30A3000030CB
:10176800A4004F08A2004E08A1000A168A115223AD
:101778000A128A1583160313210883120313A00083
:1017880083160313220883120313A1000030A11B40
:10179800FF30A200A30001300A128A1544210A1260
:1017A8008A1583120313230883160313AA008312CE
:1017B8000313220883160313A900831203132108B5
:1017C80083160313A8008312031320088316031338
:1017D800A7000A168A115F250A128A1583160313B1
:1017E8002A0883120313E5008316031329088312BA
:1017F8000313E40083160313280883120313E3007A
:1018080083160313270883120313E2000A128A15AA
:101818004C200A128A1583120313620883160313D5
:10182800D000500808008316031358080A168A11B6
:10183800D5220A128A1583160313BA0057080A1606
:101848008A11D5220A128A1583160313BB0056087B
:101858000A168A11D5220A128A1583160313BC00A8
:1018680055080A168A11D5220A128A1583160313F7
:10187800BD0054080A168A11D5220A128A15831641
:101888000313BE0053080A168A11D5220A128A15B4
:1018980083160313BF000A30AF000030B0003C08C5
:1018A800B700B8013708B1003808B2000A168A1123
:1018B80097270A128A15831603132F08303EDD0076
:1018C8000A3083120313A0000030A100831603130B
:1018D8003C08B700B801370883120313A200831627
:1018E8000313380883120313A3000A168A11AF25BD
:1018F8000A128A15831203132008303E8316031335
:10190800DE000A30AF000030B0003B08B700B80175
:101918003708B1003808B2000A168A1197270A1248
:101928008A15831603132F08303EE0000A3083120D
:101938000313A0000030A100831603133B08B7006F
:10194800B801370883120313A2008316031338085B
:1019580083120313A3000A168A11AF250A128A15E7
:10196800831203132008303E83160313E1000A3064
:10197800AF000030B0003A08B700B8013708B1002E
:101988003808B2000A168A1197270A128A15831690
:1019980003132F08303EE3000A3083120313A0001C
:1019A8000030A100831603133A08B700B8013708BE
:1019B80083120313A2008316031338088312031338
:1019C800A3000A168A11AF250A128A158312031377
:1019D8002008303E83160313E4000A30AF000030BD
:1019E800B0003D08B700B8013708B1003808B200A8
:1019F8000A168A1197270A128A15831603132F08C5
:101A0800303E8316031790000A3083120313A00098
:101A18000030A100831603133D08B700B80137084A
:101A280083120313A20083160313380883120313C7
:101A3800A3000A168A11AF250A128A158312031306
:101A48002008303E8316031791000A3083160313CB
:101A5800AF000030B0003E08B700B8013708B10049
:101A68003808B2000A168A1197270A128A158316AF
:101A780003132F08303E8316031793000A3083128E
:101A88000313A0000030A100831603133E08B7001B
:101A9800B801370883120313A2008316031338080A
:101AA80083120313A3000A168A11AF250A128A1596
:101AB800831203132008303E8316031794000A305C
:101AC80083160313AF000030B0003F08B700B80119
:101AD8003708B1003808B2000A168A1197270A1287
:101AE8008A15831603132F08303E831603179800B0
:101AF8000A3083120313A0000030A10083160313D9
:101B08003F08B700B801370883120313A2008316F1
:101B18000313380883120313A3000A168A11AF258A
:101B28000A128A15831203132008303E83160317FE
:101B38009900083083120313A40001300A168A1191
:101B4800F2220A128A15DD3083120313A400003032
:101B5800A5000A168A1119250A128A150630831259
:101B68000313A40002300A168A11F2220A128A15F7
:101B7800903083120313A4000130A5000A168A11BD
:101B880019250A128A15023083160313B900043086
:101B9800B800B930B700B70BCF2DB80BCF2DB90BA4
:101BA800CF2DD62D08000A128A1506200A128A158A
:101BB8000A168A1114220A128A1581308312031315
:101BC800A0000030A1000A168A112F220A128A15D5
:101BD800003083120313A000A1000A168A113124D1
:101BE8000A128A1583120313200883160313DC00D4
:101BF8000A168A111D220A128A151A30831603132F
:101C0800D200F730D100D10B072ED20B072E0C2EA5
:101C180079080319102E112E0C2F7903031D152E88
:101C2800162E342E83160313560883120313A700A7
:101C380078080A168A1110230A128A15F800083043
:101C480083160313BC007808BD005608BE00013097
:101C58000A168A1100240A128A1583160313D6005D
:101C680002307906031D392E3A2E582E8316031397
:101C7800570883120313A70078080A168A1110233D
:101C88000A128A15F8000B3083160313BC00780873
:101C9800BD005708BE0001300A168A1100240A1236
:101CA8008A1583160313D70003307906031D5D2EAA
:101CB8005E2E7C2E83160313540883120313A70089
:101CC80078080A168A1110230A128A15F8000930B2
:101CD80083160313BC007808BD005408BE00023008
:101CE8000A168A1100240A128A1583160313D400CF
:101CF80004307906031D812E822EA02E831603132D
:101D0800530883120313A70078080A168A111023B0
:101D18000A128A15F8000E3083160313BC007808DF
:101D2800BD005308BE0002300A168A1100240A12A8
:101D38008A1583160313D30005307906031DA52ED3
:101D4800A62E892FD03083120313A2000030A300DF
:101D58000230A4000030A50083160313560883122E
:101D68000313A6000A168A1163240A128A15D030B2
:101D780083120313A2000030A3000130A400003036
:101D8800A50083160313570883120313A6000A1627
:101D98008A1163240A128A15D03083120313A20011
:101DA8000030A3000530A4000030A50083160313FB
:101DB800540883120313A6000A168A1163240A1210
:101DC8008A15D03083120313A2000030A300063016
:101DD800A4000030A50083160313530883120313CD
:101DE800A6000A168A1163240A128A15D0308312B3
:101DF8000313A2000030A3000030A400A500A60130
:101E08000A168A1163240A128A15F801F901892F22
:101E1800D03083120313A6000030A7000030A800BA
:101E2800A9000A168A11C9260A128A1583120313F1
:101E3800260883160313D800D03083120313A60094
:101E48000030A7000130A8000030A9000A168A1146
:101E5800C9260A128A158312031326088316031348
:101E6800D700D03083120313A6000030A700023039
:101E7800A8000030A9000A168A11C9260A128A1574
:101E880083120313260883160313D600D030831257
:101E98000313A6000030A7000430A8000030A900F2
:101EA8000A168A11C9260A128A15831203132608EC
:101EB80083160313D500D03083120313A600003015
:101EC800A7000530A8000030A9000A168A11C92603
:101ED8000A128A1583120313260883160313D400E3
:101EE800D03083120313A6000030A7000630A800E4
:101EF8000030A9000A168A11C9260A128A15831207
:101F08000313260883160313D300831603135C08F0
:101F18000A168A110A260A128A1583160313D9008B
:101F28005C080A128A15FE210A128A158316031301
:101F3800DA005C080A128A15E3220A128A15831647
:101F48000313DB003030FF007F08D9073030FF0073
:101F58007F08DA073030FF007F08DB070A168A118E
:101F680044220A128A1583120313A40101300A16A7
:101F78008A11F2220A128A15013083120313A4006F
:101F88008030A5000A168A1119250A128A158312AB
:101F98000313A40102300A168A11F2220A128A15C2
:101FA8008316031359080A168A11B9220A128A15C8
:101FB8000A3083120313A4008030A5000A168A1180
:101FC80019250A128A15831603135A080A168A1144
:101FD800B9220A128A15831603135B080A168A1196
:101FE800B9220A128A150A128A1517240A128A15A2
:101FF800DC2D0A128A110E28FF1B0A2883137F186A
:1020080083170008840A0319FF0A080010308A00A1
:102018000408840A82070034743465346D347034DB
:0E2028003A3400342034203400342E34003496
:102428000A168A1151220A168A11831603131114E7
:1024380008000A168A1151220A168A1183160313F4
:1024480011150800303430343A34303430343A34EA
:102458003034303400340A168A1151220A168A118F
:1024680083120313200893000800303430342F34CB
:10247800303430342F343234303430343034003463
:1024880000300A128A1500200A168A1101300A1231
:102498008A1500200A168A110800831603131419D6
:1024A800562A572A512A11081F39031D5C2A5D2A0A
:1024B800512A08007E088A007F0882000A168A11BD
:1024C8005E220A168A118000840A04087D06031910
:1024D8000034FF0A0319FE0A622A83120313A000BC
:1024E800831603138113831203132008831603131F
:1024F80095008312031320088316031396008B1587
:102508000B108B17080083120313A200A101221CD1
:102518008E2A8F2A932A2008FF007F08A10703101C
:10252800A00D0310A20C2208031D9B2A9C2A8B2AAB
:102538002108080083120313A300091023080A12B4
:102548008A1500200A168A118312031389140D3084
:1025580083120313A200FB30A100A10BB12AA20B26
:10256800B12A831203138910080083120313A300EE
:10257800091423080A128A1500200A168A118312E0
:10258800031389140B3083120313A2006130A100D6
:10259800A10BCC2AA20BCC2AD12A831203138910AF
:1025A800080083120313A6002608A30004300310B2
:1025B800A30CFF3E031DDB2A23080F39A4002608BD
:1025C8000F39A5000A30A00024080A168A118722AC
:1025D8000A168A11831203132507080083120313AE
:1025E800A5002503031DF92AFA2A022B2408803E98
:1025F8000A168A119E220A168A110F2B0230250606
:10260800031D072B082B0F2B2408C03E0A168A111E
:102618009E220A168A11080083120313A8000618BE
:10262800162B172B2B2B0A168A11CF230A168A1161
:10263800031C1F2B202B2B2B8312031327080A168E
:102648008A11D5220A168A1183120313A80083124D
:1026580003132808080083120313A201412B013039
:10266800FF007F08A2070D3083120313A100FB307F
:10267800A000A00B3D2BA10B3D2B6530831203134B
:102688002202031C482B492B512B061C4C2B4D2B8B
:10269800512B8618502B512B332B0800831603130C
:1026A800A501A601211C592B5A2B602B2308A5072D
:1026B8000318A60A2408A60701300310A30DA40DC9
:1026C800FF3E031D612B01300310A20CA10CFF3E3D
:1026D800031D682B21082204031D732B742B562B12
:1026E8002608A2002508A100080083120313A800E9
:1026F800A401A5012008A200A3012208A60023081E
:10270800A700281C882B892B8F2B2608A4070318C1
:10271800A50A2708A50701300310A60DA70DFF3E3F
:10272800031D902B0310A80C2808031D9C2B9D2B20
:10273800852B2508A1002408A0000800F201F30158
:1027480083120313061CA92BAA2BAE2B8618AD2BBC
:10275800AE2BB22B0130FF007F08F2071A30F100D0
:10276800F830F000F00BB62BF10BB62B000001305F
:10277800FF007F08F30705307302031CC42BC52B29
:10278800A42B03307202031CCA2BCB2BCD2B0314B2
:10279800CE2B0310080083120313A201A301061C09
:1027A800D62BD72BDB2B8618DA2BDB2BDF2B013034
:1027B800FF007F08A2071A3083120313A100F73025
:1027C800A000A00BE52BA10BE52BEA2B0130FF00A5
:1027D8007F0883120313A30705302302031CF52B7C
:1027E800F62BD32B03302202031CFB2BFC2BFE2BD6
:1027F8000314FF2B0310080083160313BF003D08C2
:102808000A168A11D6240A168A1183160313BE00E3
:102818003C0883120313A400831603133F080A1607
:102828008A11F2220A168A110A168A112F230A1609
:102838008A11073083120313A4008030A5000A16FA
:102848008A1119250A168A110A168A112F230A16BF
:102858008A11831603133E0808000A168A115122AA
:102868000A168A118316031391150A168A11512222
:102878000A168A11831203131308A200A30122085F
:10288800A4002308A5000A168A1151220A168A11E3
:102898008312031320032104031D532C542C582C9A
:1028A8008316031391125B2C8316031391161116CA
:1028B800831203132508A1002408A00008000A16A3
:1028C8008A1114220A168A11831203132308A100FD
:1028D8002208A0000A168A112F220A168A118312CA
:1028E80003132508A1002408A0000A168A112F2224
:1028F8000A168A11831203132608A700A8012708BD
:10290800A0002808A1000A168A112F220A168A1187
:102918000A168A111D220A168A11343083120313EB
:10292800A800F130A700A70B972CA80B972C08003C
:102938002830831203139400831603139101831222
:1029480003132E08B2002F08B3003008B400310872
:10295800B50002300310B20DB30DB40DB50DFF3E36
:10296800031DAE2C3508A3003408A2003308A100CB
:102978003208A0000030A7007A30A6001230A50067
:102988000030A4000A168A112F270A168A1183120A
:1029980003132008FF3E8316031393009401871541
:1029A8000716080083160313BB000A30AF00003077
:1029B800B0003B08B700B8013708B1003808B200CA
:1029C8000A168A1197270A168A11831603132F08E5
:1029D800B9000A3083120313A0000030A100831647
:1029E80003133B08B700B801370883120313A2008A
:1029F80083160313380883120313A3000A168A11D7
:102A0800AF250A168A1183120313200883160313AD
:102A1800BA003908B70003300310B70DFF3E031D95
:102A2800102D0310370D3A04080083120313A9016F
:102A3800AA01422D29082407A7002508A600031883
:102A4800A60AA91F282DA603831203132608A80087
:102A58002808FF00270884000A168A1100200A1691
:102A68008A110A168A11B9220A168A1101308312AC
:102A78000313A9070318AA0A0030AA07290824077C
:102A8800A7002508A6000318A60AA91F4C2DA6030F
:102A9800831203132608A8002808FF0027088400CB
:102AA8000A168A1100200A168A11003A031D5D2DA4
:102AB8005E2D1E2D0800803083160313AA062E08EB
:102AC80083120313A300831603132D088312031321
:102AD800A200831603132C0883120313A100831684
:102AE80003132B0883120313A000831603132A0869
:102AF80083120313A70083160313290883120313F1
:102B0800A60083160313280883120313A50083164F
:102B18000313270883120313A4000A128A118523BA
:102B28000A168A1183120313230883160313AA00B3
:102B380083120313220883160313A90083120313B5
:102B4800210883160313A800831203132008831691
:102B58000313A700080083120313A501A31FB52DB3
:102B6800B62DBD2DA209A309A20A0319A30AA5011E
:102B7800A50AA11FC02DC12DC62DA009A109A00A13
:102B88000319A10A200821040319CB2DCC2DFB2DF4
:102B9800A401A40ADA2D01300310A00DA10DFF3EF7
:102BA800031DD02D0130FF007F08A407A11FDD2DD4
:102BB800DE2DCF2D21082302031DE42D200822023B
:102BC800031CE72DE82DEE2D2008A2022108031C86
:102BD800A303A30201300310A10CA00CFF3E031DA8
:102BE800EF2D0130A402031DFA2DFB2DDE2D250843
:102BF8000319FF2D002E052EA209A309A20A031905
:102C0800A30A2308A1002208A000080083160313C2
:102C1800A000200883120313EC00ED01EE01EF0180
:102C28006F08A3006E08A2006D08A1006C08A00040
:102C380001300A128A1544210A168A1183120313D5
:102C48002308B5002208B4002108B3002008B20008
:102C58003F30B100FA30B000F830AF003830AE0085
:102C68000A128A1140200A168A11831203133108A6
:102C7800CF003008CE002F08CD002E08CC004230FF
:102C8800CB00C830CA000030C9000030C8000A12A2
:102C98008A11DD250A168A11831203134B08E500F1
:102CA8004A08E4004908E3004808E2000A128A15C5
:102CB8004C200A168A118312031362088316031321
:102CC800A0002008080083120313A2008316031330
:102CD8000F14A42E831603130F178F160F16C82E62
:102CE800831603130F178F160F12C82E831603139C
:102CF8000F178F120F16C82E831603130F178F1274
:102D08000F12C82E831603130F138F160F16C82E13
:102D1800831603130F138F160F12C82E831603136F
:102D28000F138F120F16C82E831603130F138F124B
:102D38000F12C82E831603130F178F160F12C82EE3
:102D4800831203132208A000A1012108003A0319E5
:102D5800AE2E9E2E2008013A03196E2E033A03194F
:102D6800742E013A03197A2E073A0319802E013A74
:102D78000319862E033A03198C2E013A0319922E51
:102D88000F3A0319982E9E2E08000A168A1114224B
:102D98000A168A11831203132708A1002608A00027
:102DA8000A168A112F220A168A1183120313290878
:102DB800A1002808A0000A168A112F220A168A11D3
:102DC8000A168A111D220A168A111A308312031351
:102DD800AB00F730AA00AA0BEF2EAB0BEF2EF42EA8
:102DE8000A168A1114220A168A1183120313260856
:102DF800013EA00027080318013E003EA1000A1664
:102E08008A112F220A168A11003083120313A00098
:102E1800A1000A168A1131240A168A118312031393
:102E28002108AD002008AC000A168A111D220A16D6
:102E38008A111A3083120313AB00F730AA00AA0BC9
:102E4800232FAB0B232F282F831203132D08A70042
:102E58002C08A6000800003083120313AC000030D1
:102E6800AB000030AA000030A90023082204210486
:102E780020040319402F412F8E2FAD01AD0A512F89
:102E88000130A8000310A00DA10DA20DA30DA80BE1
:102E9800462F0130FF007F08AD07A31F542F552F81
:102EA800442F0130A8000310A90DAA0DAB0DAC0DDD
:102EB800A80B572F23082702031D6C2F2208260270
:102EC800031D6C2F21082502031D6C2F20082402E6
:102ED800031C6F2F702F7F2F2008A4022108031CCA
:102EE800210FA5022208031C220FA6022308031C97
:102EF800230FA702291401300310A30CA20CA10C64
:102F0800A00CFF3E031D802F0130AD02031D8D2F45
:102F18008E2F552F2C08A3002B08A2002A08A100E9
:102F28002908A000080083160313B401B01F9D2FC1
:102F38009E2FA52FAF09B009AF0A0319B00AB40133
:102F4800B40AB21FA82FA92FB22FB109B209B10A2A
:102F58000319B20A0130FF007F08B406B501B601B3
:102F68002F0830040319B92FBA2FF12FB301B30A70
:102F7800C82F01300310AF0DB00DFF3E031DBE2F4B
:102F88000130FF007F08B307B01FCB2FCC2FBD2F18
:102F980001300310B50DB60DFF3E031DCD2F3008CF
:102FA8003202031DD92F2F083102031CDC2FDD2F1D
:102FB800E42F2F08B1023008031CB203B202351403
:102FC80001300310B00CAF0CFF3E031DE52F01309C
:102FD800B302031DF02FF12FCC2F34080319F52F5E
:102FE800F62FFB2FB509B609B50A0319B60A360834
:082FF800B0003508AF0008002D
:04400E00D420FF3F7C
:00000001FF
