:060000000A128A110C280F
:10000800FE00030EF1000A08F2000A128A11CA283B
:100018000A128A110F28F601F70183010A128A11C0
:10002800B929F5008028831203139F121F129F110C
:100038001F11B428831203139F121F129F111F153B
:10004800B428831203139F121F129F151F11B4287F
:10005800831203139F121F129F151F15B4288312B2
:1000680003139F121F169F111F11B4288312031325
:100078009F121F169F111F15B428831203139F1276
:100088001F169F151F11B428831203139F121F16E2
:100098009F151F15B428831203139F161F129F1153
:1000A8001F11B428831203139F161F129F111F15C7
:1000B800B428831203139F161F129F151F11B4280B
:1000C800831203139F161F129F151F15B42883123E
:1000D80003139F161F169F111F11B42883120313B1
:1000E8009F161F169F111F15B428831203139F1202
:1000F8001F129F111F11B4287508F300F40174082A
:10010800003A0319882879287308003A0319172830
:10011800013A03191E28033A03192528013A03193D
:100128002C28073A03193328013A03193A28033AC5
:1001380003194128013A031948280F3A03194F288F
:10014800013A03195628033A03195D28013A03199D
:100158006428073A03196B28013A03197228792889
:10016800831603131F129F12831203131F139F1763
:10017800831603139F13831203131F142130F300F4
:10018800F30BC428831203139F140800831203136C
:100198008C1DCF28D02820291412141BD428D52828
:1001A800D928941FD828D928DE281308F700141353
:1001B8009413141683160313941AE328E428FE28CC
:1001C8001419E728E828FE28831203131308F700F8
:1001D8008C11141683160313141CF328F428EE2824
:1001E8008312031313088800A630F000F00BFA28D6
:1001F80000001D29941A012902291D29141D052909
:1002080006291D29831203131308F7008316031305
:10021800141076088312031393001416A630F00006
:10022800F00B142900008316031314181C291D2928
:100238001729831203138C1172088A00710E830028
:10024800FE0E7E0E0900F500831603130F145029C5
:100258000F178F160F1672290F178F160F12722984
:100268000F178F120F1672290F178F120F1272297C
:100278000F138F160F1672290F138F160F1272296C
:100288000F138F120F1672290F138F120F12722964
:100298000F178F160F1272297508F300F4017408EE
:1002A800003A031958294C297308013A03192C29D3
:1002B800033A03193029013A03193429073A031973
:1002C8003829013A03193C29033A03194029013A0C
:1002D800031944290F3A031948294C290800F30047
:1002E80073088316031393003630831203139400A4
:1002F8008030831603139400013091008715071688
:100308008B170B17831203138C11831603138C1589
:10031800080001300A128A1127210A128A11203096
:10032800831603178800890105300A128A111520DF
:100338000A128A1180300A128A1173210A128A114C
:100348000800831203139F148230F400DD30F30099
:10035800F30BAC29F40BAC29B129831203139F18B2
:10036800B629B729B1291E0808000A128A118D2159
:100378000A128A110A128A11A5210A128A11F60094
:08038800BE290A128A110C289B
:04400E00D620FF3F7A
:00000001FF
